:020000040800F2
:1000000028050020450100083B1A00087718000861
:10001000391A00089D080008971D0008000000001C
:100020000000000000000000000000005B1A000853
:100030009F08000800000000591A0008911A0008E3
:100040005F0100085F0100085F0100085F01000810
:100050005F0100085F0100085F0100085F01000800
:100060005F0100085F0100085F0100085F010008F0
:100070005F0100085F0100085F0100085F010008E0
:100080005F0100085F0100085F0100085F010008D0
:100090005F0100085F0100085F0100085F010008C0
:1000A0005F0100085F0100085F0100085F010008B0
:1000B0005F0100085F010008F51A00085F010008F1
:1000C0005F0100085F0100085F0100085F01000890
:1000D0005F0100085F0100085F0100085F01000880
:1000E0005F0100085F0100085F0100085F01000870
:1000F0005F0100085F0100085F0100085F01000860
:100100005F0100085F0100085F0100085F0100084F
:100110005F0100085F0100085F0100085F0100083F
:100120005F0100085F0100085F0100085F0100082F
:10013000DFF80CD000F0A0FB00480047D91D0008F4
:10014000280500200648804706480047FEE7FEE7EE
:10015000FEE7FEE7FEE7FEE7FEE7FEE7FEE7FEE777
:10016000F31A000831010008202A04DB203A21FAA2
:1001700002F00021704721FA02F3D040C2F12002C0
:100180009140084319467047D2B201E000F8012BB4
:10019000491EFBD270470022F6E710B513460A4607
:1001A00004461946FFF7F0FF204610BDF0B480EA80
:1001B0000102D40F4200B2EB410F02D202460846C0
:1001C00011464A0042D0C30DDDB2C1F3C752AD1A89
:1001D000202D35DAC1F3160141F4000204B1524278
:1001E000C5F1200602FA06F12A411044B3EBD05FB4
:1001F00023D0C4B1012DA0EBC35009DCF0BC4FF0FB
:10020000004202EAC352DBB200F5000000F0A8BAD7
:10021000400000F1807000EBC350A0F1807040EA14
:10022000D170490009E0490841EAC071A0EBC35010
:1002300000F50000400800EBC350F0BC00F087BAA6
:100240006142012202EB4101001BF6E7F0BC70475E
:1002500081F00041AAE780F00040A7E780EA0102B0
:1002600010B502F00043400022D04A001FD0010E1A
:1002700001EB1261C0F35600C2F3560240F40000D5
:1002800042F40002A0FB022000047F39140400D0D5
:10029000401C50EA124001D44000491EC2B20C0674
:1002A00004EBD010401C4008802A02D003E000205C
:1002B00010BD20F00100002900DA0020184310BD15
:1002C000420005D0C0F3C7525242914201DC0020E7
:1002D000704700EBC15070472DE9FE4F804681EA20
:1002E0000300C00F0C46009021F0004123F00045B0
:1002F000B8EB0200A94105D24046214690461C4673
:100300000B46024623F00040104347D0270DC7F3A9
:100310000A00C3F30A510290401A019040286BDA98
:10032000C3F3130040F4801B0098924620B10023D1
:10033000D2EB030A63EB0B0B01985946C0F1400264
:10034000504600F0E3F906460D4650465946019ADC
:1003500000F0EBF910EB08006141002487EA11522C
:1003600084EAE7731A4340D0009A62B3019A012AE3
:100370004FEA075215DC001B61EB02014FF000420F
:1003800002EA0752CDE90042001C41F580113246D5
:100390002B4600F022FA03B0BDE8F08F404621461C
:1003A000F9E7001B61EB0201001C41F58013001806
:1003B0005B412018A2F5001747EB030140EAD57016
:1003C000B6196D4111E06D084FEA360645EAC07571
:1003D0004FEA0752001B61EB0201001C41F580113E
:1003E00049084FEA30000019514132462B4603B00C
:1003F000BDE8F04F00F0E2B9009801224000002370
:10040000D0EB020263EBE073009821464FEAE07400
:10041000B8EB000061EB0401E9E783F000435BE720
:1004200081F0004158E72DE9FE4F81EA030404F012
:10043000004421F0004100944FF0000B23F00043F2
:1004400050EA01045ED052EA03045BD0C3F30A54BD
:10045000C1F30A552C44A4F2F3340194A0FB0254D6
:10046000C1F3130141F48011C3F3130343F4801368
:1004700001FB024400FB034E840A970A44EA8154BC
:1004800047EA8357A4FB076802958D0A05FB078599
:100490004FEA932C04FB0C542705029D4FEA0658A3
:1004A00047EA1637B5EB08056EEB070C870E920E80
:1004B00047EA811742EA8312A7FB0201B6EB0B0160
:1004C00064EB00042B0D43EA0C335E1844EB1C5024
:1004D000DA465146E7FB0201C5F313044FEA0B333A
:1004E00043EA14534FEA0432019C43EA0603A4F1A1
:1004F0000C040294009CCDE900B400F06EF903B046
:10050000BDE8F08F00200146F9E72DE9F04D81EAC2
:10051000030404F0004B21F0004514464FF0000A9C
:1005200023F0004150EA050220D054EA01021DD018
:10053000C5F30A570246C5F31303C1F31300C1F311
:100540000A5640F4801543F48013A7EB0608101BED
:10055000D64608F2FD3873EB050002D308F1010816
:1005600001E092185B41B8F1000F03DA0020014668
:10057000BDE8F08D00204FF48011064684460EE061
:10058000171B73EB050705D3121B63EB050306432B
:100590004CEA010C49084FEA300092185B4150EADE
:1005A0000107EDD152EA030012D082EA040083EA87
:1005B0000501084305D0101BAB4106D201220023E0
:1005C00006E000224FF0004302E06FF001025310FA
:1005D0001AEB06004CEB085110EB0A0041EB0B0143
:1005E000BDE8F04D00F0EAB870B521F000430343D8
:1005F0000CD0C1F30A550024D5EB040564EB0403C9
:10060000D617AD1AB34102DB0020014670BD201899
:1006100041EB025170BDC10F80EAE0700844CA0787
:100620009623002100F09CB896230022114600F08A
:1006300097B80EB5C10F80EAE0700844CA070021E0
:1006400040F233438DE80E000A460B4600F0C5F831
:1006500003B000BD00F0004220F00040C10DC0F327
:10066000160040F400007F2901DA00207047962927
:1006700003DCC1F19601C84001E096398840002AA8
:10068000F4D04042704720F00040C10DC0F3160086
:1006900040F400007F2901DA00207047962903DC2E
:1006A000C1F19601C840704796398840704700F004
:1006B000004230F000400AD0C10D01F56071C0F376
:1006C000160042EA0151C20840071143704700205A
:1006D0000146704701F0004330B421F0004150EA78
:1006E000010206D00A0DA2F56072C1F31301002ABF
:1006F00002DC30BC00207047440F44EAC104C10052
:10070000E01830BC00EBC25000F021B8202A04DB16
:10071000203A00FA02F1002070479140C2F1200314
:1007200020FA03F3194390407047202A06DBCB17C9
:10073000203A41FA02F043EAE07306E041FA02F39C
:10074000D040C2F120029140084319467047002969
:10075000A8BF7047401C490008BF20F00100704747
:1007600010B4B0FA80FC00FA0CF050EA010404BFA7
:1007700010BC704749B1CCF1200421FA04F411FAFD
:100780000CF118BF012121430843A3EB0C01CB1D41
:100790004FEA00614FEA102042BF002010BC7047B2
:1007A00000EBC35010440029A4BF10BC7047401C8C
:1007B000490008BF20F0010010BC704710B5141E9E
:1007C00073F1000408DA401C41F1000192185B410A
:1007D0001A4301D120F0010010BD2DE9F04D9246E1
:1007E0009B4611B1B1FA81F202E0B0FA80F22032F8
:1007F0009046FFF78BFF04460F4640EA0A0041EAA5
:100800000B0153465A46084313D0114653EA0100E0
:1008100019D0C8F140025046FFF7A6FC05460E4627
:10082000504659464246FFF771FF084305D0012064
:1008300004E020463946BDE8F08D0020054346EA35
:10084000E0762C4337430A986305E40AA0EB0800DE
:100850000022FD0A44EA47540A3002D5002001462E
:10086000E9E7010510196941DDE908450019694109
:10087000BDE8F04DA2E70000064C074D06E0E06839
:1008800040F0010394E8070098471034AC42F6D3D7
:10089000FFF752FCEC1F00080C200008FEE7704731
:1008A00072B6FEE72DE9F84FDFF8C891002409F190
:1008B000040A0AF1040B23460F270BF1040ED1E0C2
:1008C0000125A54006EA0502AA4276D1DFF8A8C1B3
:1008D0004E68A6EB0C0866452BD00DDC032E34D0F9
:1008E00005DC36B3012E19D0022E2FD11BE0112EBC
:1008F00016D0122E2AD119E0B8F5881F19D006DCBF
:10090000B8F5803F15D0B8F5801F1FD111E0B8F5BC
:10091000001F0ED0B8F5041F18D10AE0CB6815E00F
:10092000CB681B1D12E0CB6808330FE0CB680C339B
:100930000CE08B682BB1012B4FF0080303D045610D
:1009400004E0042302E0056100E00023FF2A01D84F
:10095000064601E000F104064FEA840501D9A5F13D
:100960002005D6F8008007FA05FC28EA0C0803FAEF
:1009700005F548EA0508C6F800804D68ED0070D519
:100980003E4DAE6946F00106AE61AD6924F0030646
:1009900005F0010500953A4D06EB050CDCF8085012
:1009A000A607360F07FA06F825EA0805DFF8D4800F
:1009B000404503D14FF0000825E052E0DFF8C88041
:1009C000404502D14FF001081DE0DFF8C0804045EE
:1009D00002D14FF0020816E0DFF8B480404502D1A2
:1009E0004FF003080FE0DFF8AC80404502D14FF034
:1009F000040808E0DFF8A080404502D14FF0050868
:100A000001E04FF0060808FA06F848EA0508CCF8B5
:100A100008804D68D9F80060ED034D4601D51643B6
:100A200000E096432E604D68DAF80060AD0355464D
:100A300001D5164300E096432E604D68DBF8006058
:100A4000ED025D4601D5164300E096432E604D68E9
:100A5000DEF80060AD02754601D5164300E096430E
:100A60002E60641C0A681646E2407FF429AFBDE898
:100A7000F88F000000040140000011100010024037
:100A80000000014000080140000C0140001001403E
:100A90000014014000180140001C01400AB101612E
:100AA00070470904FBE700000148806870470000B8
:100AB0003C00002002488168027811448160704740
:100AC0003C000020074810B5016841F010010160AA
:100AD000032000F075F8002000F006F800F024F87C
:100AE000002010BD0020024070B50D4D04464FF4AB
:100AF0007A712878B1FBF0F00A490968B1FBF0F08F
:100B000000F0CCFA48B9102C07D200222146501E22
:100B100000F036F800206C6070BD012070BD000050
:100B20003C000020480000200C4808B5816941F0D5
:100B300001018161816901F001010091C16941F008
:100B40008051C161C06900F0805000900448416844
:100B500021F0E06141F00071416008BD00100240E9
:100B600000000140002809DB00F01F020121914034
:100B70004009800000F1E020C0F80011704700003B
:100B8000F0B40E4B1B680C46C3F30223C3F10705F8
:100B9000042D00D90425191D072901D2002300E0E6
:100BA000DB1E012606FA05F1491E214099409E40B0
:100BB000761E16403143F0BC01F0EEB80CED00E0BB
:100BC000064900F0070208684FF6FF03184040EAA4
:100BD0000220034A10430860704700000CED00E05B
:100BE0000000FA052DE9F0470F46050061D0434E9D
:100BF000306800F00700B84209D2306820F00700E2
:100C000038433060306800F00700B84251D128689E
:100C10003B4C810712D5400703D5606840F4E06083
:100C200060602878000703D5606840F46050606019
:100C30006068A96820F0F000084360602878C00769
:100C400028D06868012810D02168022810D08907B0
:100C500000292EDA616821F0030101436160FFF78A
:100C600023FF804641F288390DE021688903EFE7D0
:100C70008901EDE7FFF718FFA0EB0801494502D90C
:100C80000320BDE8F0876068696800F00C00B0EBF5
:100C9000810FEFD1306800F00700B8420BD93068FF
:100CA00020F0070038433060306800F00700B84299
:100CB00001D00120E5E72878400705D56068E9689C
:100CC00020F4E060084360602878000706D560687B
:100CD000296920F4605040EAC100606000F018F813
:100CE0006168084AC1F30311515CC84006490860B5
:100CF00006480068FFF7F8FE0020C2E70020024027
:100D000000100240DC1F00084800002040000020C6
:100D100012A185B00FC98DE80F0014A0144A006815
:100D200004905168134801F00C03042B10D0082BD9
:100D30000ED1C1F38343C9031DF803000AD55168DE
:100D400004AAC1F34041515C0A4A5043B0FBF1F0A0
:100D500005B0704708494843FAE70000020304055C
:100D6000060708090A0B0C0D0E0F101001020000F7
:100D70000010024000127A0000093D002DE9F84FF2
:100D8000040070D02078C04DC00749D06868C0F317
:100D90008100012807D06868C0F38100022809D1CA
:100DA0006868C00306D52868800339D560680028C4
:100DB000E7D035E06068B0F5803F0BD010B1B0F5FA
:100DC000A02F11D0286820F480302860286820F4F3
:100DD000802002E0286840F480302860606890B18C
:100DE000FFF762FE06460AE0286840F4802028608B
:100DF000F0E700BFFFF758FE801B642873D828680F
:100E00008003F7D50CE0FFF74FFE064605E000BF74
:100E1000FFF74AFE801B6428F0D828688003F7D4C7
:100E200020789A4E80074FF001094FF0000839D51D
:100E3000686810F00C0F07D06868C0F381000228C2
:100E400009D16868C00306D42868800714D52069D2
:100E5000012808D110E02069B0B1C6F80090FFF772
:100E600023FE074605E00AE1FFF71EFEC01B02282D
:100E7000C4D828688007F7D52868616920F0F80091
:100E800040EAC10028600DE0C6F80080FFF70CFEC4
:100E9000074604E0FFF708FEC01B022823D8286895
:100EA0008007F7D4207800072CD57948A169D9B1FB
:100EB000C0F80090FFF7F8FD074604E0FFF7F4FDE7
:100EC000C01B02280FD8686A8007F7D571484FF415
:100ED000FA510068B0FBF1F0009000BF0098411E8D
:100EE0000091FAD20EE080E0C0F80080FFF7DCFD50
:100EF000074604E0FFF7D8FDC01B022875D8686AD2
:100F00008007F7D42078400760D5E8690027C00043
:100F100008D4E86940F08050E861E869012700F0F2
:100F2000805000905C480168C90513D4016883466D
:100F300041F480710160FFF7B7FD824606E000BF13
:100F4000FFF7B2FDA0EB0A0064284ED8DBF80000E2
:100F5000C005F5D5E06801280AD008B1052813D0EE
:100F6000286A20F001002862286A20F0040002E0CC
:100F7000286A40F001002862E06841F2883B98B19D
:100F8000FFF792FD82460BE0286A40F004002862D9
:100F9000EEE700BFFFF788FDA0EB0A0159455AD8DC
:100FA000286A8007F6D50CE0FFF77EFD824605E053
:100FB000FFF77AFDA0EB0A0159454CD8286A800753
:100FC000F6D41FB1E86920F08050E861E06988B389
:100FD0006968C1F38101022944D00228C6F8608003
:100FE00004D0FFF761FD044638E034E0FFF75CFD14
:100FF000074604E0FFF758FDC01B02282BD82868DD
:101000008001F7D4206AB0F5803F05D16868A168F7
:1010100020F4003008436860D4E908010843696897
:1010200021F4741108436860C6F86090FFF73CFD36
:10103000044606E025E000BFFFF736FD001B02284E
:1010400009D828688001F7D51BE000BFFFF72CFD09
:10105000001B022802D90320BDE8F88F2868800110
:10106000F4D40EE00128F7D06868226A00F48031D9
:10107000914204D1616A00F47010884201D00120CD
:10108000EAE70020E8E700000010024000004242CA
:1010900080044242480000200070004010B5401E0D
:1010A000B0F1807F01D3012010BD4FF0E0246061DA
:1010B0000F21601700F070FE0020A0610720206162
:1010C000002010BD7047704770B590F83C20012A91
:1010D0002CD0012480F83C40022280F83D20036897
:1010E0005A689D6822F070060A6832435A60104BB5
:1010F00002689A420ED00F4B9A420BD0B2F1804F49
:1011000008D00D4B9A4205D00C4B9A4202D00C4BA2
:101110009A4204D1496825F080031943916080F810
:101120003D40002180F83C10084670BD022070BD93
:10113000002C014000340140000400400008004041
:10114000000C004010B5040003D094F83D0010B12D
:1011500007E0012010BD002084F83C00204600F08C
:101160001FF8022084F83D00211D206800F0C8FC13
:10117000012084F8460084F83E0084F83F0084F89B
:10118000400084F8410084F8420084F8430084F869
:10119000440084F8450084F83D00002010BD0000A4
:1011A00008B500680B49884212D10B48C16941F06B
:1011B0000401C161C069002200F0040000901146E2
:1011C0001E20FFF7DDFCBDE808401E20FFF7CABC6B
:1011D00008BD0000000800400010024090F83D10DB
:1011E000012901D001207047022180F83D100168DB
:1011F000CA6842F00102CA6000680E4988420ED0F7
:101200000D4988420BD0B0F1804F08D00B4988427D
:1012100005D00B49884202D00A49884204D181682E
:1012200001F00701062903D0016841F001010160C6
:1012300000207047002C01400034014000040040B1
:1012400000080040000C004070B5044690F83C00D7
:10125000012817D0012584F83C50022084F83D0075
:101260002068826822F0770222F47F428260086858
:10127000502830D00DDC20284DD005DC98B3102844
:101280003BD148E0022070BD302844D0402834D102
:1012900039E0602828D0702806D0B0F5805F2CD0C7
:1012A000B0F5005F29D10AE0CB68D1E901212068BF
:1012B00000F079FC2068816841F0770109E0CB6893
:1012C000D1E90121206800F06EFC2068816841F4BA
:1012D0008041816011E0CA684968206800F038FDEB
:1012E0005021206807E016E0CA684968206800F0CD
:1012F00040FD6021206800F060FC84F83D50002033
:1013000084F83C0070BDCA684968206800F020FD80
:1013100040212068EFE7226801461046EBE72DE9FF
:10132000F0410D46040003D094F83D0018B108E0E8
:101330000120BDE8F081002084F83C00204600F048
:1013400041F8022084F83D002068816844F20702D9
:1013500091438160211D206800F0D2FB22689068D3
:101360009169166A2B68AF69034340F203308143E9
:1013700041EA0721A868EF6908434FF6FC4188431A
:10138000E96840EA0720014328692F6A000140EA22
:101390000730084369686D6926F0220646EA05159C
:1013A000294393602268906154F8460B0162012042
:1013B00004F81F09E0752076E0762077A0750020FC
:1013C000B7E7000000B585B00021009101910291BE
:1013D00003910068B0F1804F16D10C48C16941F00B
:1013E0000101C161C16901F001010491816941F00C
:1013F000040181618069694600F0040004900320C3
:1014000000900348FFF74EFA05B000BD00100240FF
:101410000008014070B590F83E60044690F83F50D7
:1014200090F8423090F84320022021B104290ED0D8
:10143000012E1BD114E0012E18D1012B16D184F8F6
:101440003E0084F8420001220021206820E0012DA6
:101450000CD1012A0AD184F83F0084F8430014E03B
:10146000012D03D1012B01D1012A01D0012070BD32
:1014700084F83E0084F83F0084F8420084F843007A
:1014800001220021206800F081FB01220421206854
:1014900000F07CFB2068016841F001010160002040
:1014A00070BD704770B50446006801694FF00005D3
:1014B000C943890715D4C168C943890711D4E91EF6
:1014C000016101202077206880698007204602D0D2
:1014D000FFF7E7FF04E000F0BFF8204600F062F9F4
:1014E000257720680169C943490717D4C168C943F2
:1014F000490713D46FF004010161022020772068AE
:10150000806910F4407F204602D0FFF7CAFF04E054
:1015100000F0A2F8204600F045F92577206801691F
:10152000C943090716D4C168C943090712D46FF02B
:1015300008010161042020772068C06980072046E7
:1015400002D0FFF7AEFF04E000F086F8204600F07E
:1015500029F9257720680169C943C90617D4C168EC
:10156000C943C90613D46FF0100101610820207728
:101570002068C06910F4407F204602D0FFF791FF39
:1015800004E000F069F8204600F00CF925772068A7
:101590000169C943C90708D1C168C943C90704D152
:1015A000891E0161204600F059F920680169C9438C
:1015B000090609D4C168C943090605D46FF0800142
:1015C00001612046FFF77EFD20680169C943490695
:1015D00009D4C168C943490605D46FF040010161CF
:1015E000204600F047F920680169C94389060BD4F9
:1015F000C168C943890607D46FF020010161204604
:10160000BDE87040FFF75FBD70BD000000B585B05C
:101610000021009101910291039100680B498842D9
:1016200011D10B48816941F00401816180696946EB
:1016300000F004000490C02000900220019003906C
:101640000448FFF72FF905B000BD0000000400407A
:101650000010024000080140704770B5044690F841
:101660003C000D4601280AD0012084F83C0042B11C
:10167000042A18D0082A2AD00C2A4DD139E0022099
:1016800070BD206800F0A2FA2068816941F008016D
:1016900081612068816921F004018161206881698C
:1016A0002A69114311E0206800F0C0FA20688169BE
:1016B00041F4006181612068816921F48061816168
:1016C000206881692A6941EA0221816124E0206859
:1016D00000F0E2FA2068C16941F00801C1612068A8
:1016E000C16921F00401C1612068C1692A691143FF
:1016F00011E0206800F004FB2068C16941F400613A
:10170000C1612068C16921F48061C1612068C1693B
:101710002A6941EA0221C161002084F83C0070BDC1
:1017200010B5040003D094F83D0010B107E001208B
:1017300010BD002084F83C00204600F01FF8022075
:1017400084F83D00211D206800F0DAF9012084F8BA
:10175000460084F83E0084F83F0084F8400084F896
:10176000410084F8420084F8430084F8440084F87F
:10177000450084F83D00002010BD000008B5006859
:101780000649884208D10648C16941F00201C16199
:10179000C06900F00200009008BD00000004004095
:1017A000001002407047000010B50446022249B103
:1017B00004290ED0082913D094F84100012816D02E
:1017C000012010BD94F83E000128F9D184F83E2094
:1017D0000FE094F83F000128F2D184F83F2008E0A0
:1017E00094F840000128EBD184F8402001E084F80F
:1017F00041200122206800F0C9F913492068134AEA
:10180000884201D0904203D1436C43F400434364C7
:10181000206888420DD090420BD0B0F1804F08D0A4
:101820000B49884205D00B49884202D00A498842B8
:1018300004D1816801F00701062903D0016841F055
:1018400001010160002010BD002C01400034014066
:101850000004004000080040000C004000680349FC
:10186000884202D1024901200870704700080040F8
:10187000000000207047FEE730B585B000200090E2
:101880000190029003901648816941F01001816136
:10189000816901F010010491816941F020018161A9
:1018A000816901F020010491816941F004018161A5
:1018B0008069012200F004000A4D5403049021467F
:1018C0002846FFF7EBF8012002210094CDE9010141
:1018D000039169462846FEF7E5FF05B030BD0000DC
:1018E000001002400010014010B58CB02421684661
:1018F000FEF751FC0024154809944FF080410A94EA
:10190000C0E900144FF6FF71C0E90241046184612F
:101910000320CDE900040120CDE902040494CDE9BF
:1019200005400794694609480894FFF7F8FC08B198
:10193000FEF7B6FF099409A904480A94FFF7C4FB0F
:10194000002801D0FEF7ACFF0CB010BD4C00002009
:1019500010B58AB0002407941C2168460894FEF74D
:101960001AFC1A48184901602321C0E901146321B7
:10197000C0E903148461FFF7D3FE08B1FEF790FFBE
:10198000079407A911480894FFF79EFB08B1FEF7DA
:1019900087FF6020CDE900040294002269460B48CD
:1019A0000494FFF75AFE08B1FEF77AFF0422694655
:1019B0000648FFF752FE08B1FEF772FF0348FFF733
:1019C00025FE0AB010BD0000000400409400002075
:1019D00010B586B000241748009401940294039433
:1019E00004941349059401604721C0E9011440F2B1
:1019F000E731C0E903148461FFF7A4FB08B1FEF7E7
:101A00004FFF4FF48050009069460A48FFF71CFCD6
:101A100008B1FEF745FF049404A906480594FFF7B2
:101A200053FB002801D0FEF73BFF06B010BD0000BD
:101A300000080040DC000020FEE7FEE7054B03F154
:101A4000100C8CE807000020186258629862D86277
:101A500058637047000000207047704710B510F1C0
:101A6000FF4F06D3FEF7F6FD002800DA4042FEF7EE
:101A7000D2FD054A0549904201DA002010BD884296
:101A8000FCDD084610BD0000000070410000B442BB
:101A9000FFF710B830B58FB028216846FEF77BFB02
:101AA00014210AA8FEF777FB01210804CDE90010F4
:101AB0000024029402250491CDE907504FF4E01070
:101AC00009906846FFF75AF908B172B6FEE70F2091
:101AD000CDE90A054FF48060CDE90C4002210AA847
:101AE0000E94FFF77FF8002801D072B6FEE70FB022
:101AF00030BD70470148FFF7D5BC0000DC00002076
:101B0000F0B502681C4B1D4D1D4E1E4F1E4C4FF074
:101B1000804C984209D0A04207D0604505D0A84229
:101B200003D0B04201D0B84204D122F0700E4A680E
:101B300042EA0E02984209D0A04207D0604505D083
:101B4000A84203D0B04201D0B84203D122F440757C
:101B5000CA682A434D6922F080022A4302608A68DB
:101B6000C2620A688262984201D0A04201D109692A
:101B7000016301214161F0BD002C014000040040DF
:101B800000080040000C00400034014010B501F096
:101B90001F030121046A99408C430462016A9A4040
:101BA0001143016210BD10B5846842EA032224F497
:101BB0007F440A432243826010BD826822F0700293
:101BC0000A4342F00701816070470000F0B5026AE5
:101BD00022F001020262036A42688469124E24F014
:101BE00073050C682C4323F002058B682B430D4DC5
:101BF000A84201D0B04205D123F00807CB683B438F
:101C000023F00403A84201D0B04205D14D6922F46B
:101C1000407215438A692A4342608461496841637E
:101C20000362F0BD002C014000340140F0B5026AAF
:101C300022F010020262026A436884690D6824F48B
:101C4000E64444EA05248D6822F0200242EA0512A7
:101C50000F4D104EA84201D0B04206D1CF6822F0FD
:101C6000800242EA071222F04002A84201D0B042AC
:101C700007D14D6923F4406343EA85038D6943EA44
:101C8000850343608461496881630262F0BD00009E
:101C9000002C014000340140F0B5026A22F4807249
:101CA0000262026A4368C46922F4007224F0730578
:101CB0000C68124E2C438D6842EA05220E4DA84254
:101CC00001D0B04206D1CF6822F4006242EA072276
:101CD00022F48062A84201D0B04207D14D6923F4BA
:101CE000405343EA05138D6943EA05134360C46119
:101CF0004968C1630262F0BD002C0140003401401C
:101D000030B5026A22F480520262046A4268C369F2
:101D10000D6823F4E64343EA05238D6824F4005458
:101D200044EA0534084DA84202D0084DA84204D127
:101D30004D6922F4804242EA85124260C3614968DB
:101D40000164046230BD0000002C014000340140F9
:101D500010B5036A046A24F001040462846924F063
:101D6000F00444EA021423F00A020A438461026286
:101D700010BD10B5036A23F0100303628369046A7F
:101D800023F4704343EA023224F0A00343EA011132
:101D90008261016210BDFEE70907090E002804DB1D
:101DA00000F1E02080F80014704700F00F0000F10F
:101DB000E02080F8141D704702E008C8121F08C117
:101DC000002AFAD170477047002001E001C1121FBC
:101DD000002AFBD170470000FEF774FEFFF75AFEA1
:101DE000FFF74AFDFFF780FDFFF7B2FDFFF7F0FDBB
:101DF00004211C48FFF70EFB00211B48FFF7D4FC11
:101E000004211948FFF7D0FC1848FFF7E7F9184CF0
:101E10000025E561A57000F0CFF82078012808D1F1
:101E20008007406AFEF700FCE0606078401C60704C
:101E3000257060780A28F0D100F01CF80146A063F4
:101E4000A078012809D000F0B7F804F1100007C805
:101E5000FFF7F4FDA5636570DFE7E06900F028F89F
:101E6000F9E700004C00002094000020DC00002076
:101E7000000000200A4810B50068406A094900B215
:101E80000881FEF7D6FB0022074BFEF7CCFA0022B2
:101E9000064BFEF73AFBBDE81040FEF71BBC000006
:101EA0004C00002000000020008076400000994097
:101EB0002DE9F84FFEF7CCF93B4C07460121206293
:101EC000606A0090FEF7FCF93946FEF7C4F9A16A92
:101ED000FEF76CF9A169FEF7C1F9FEF7E8FBDFF840
:101EE000CCA0DFF8CCB052465B46FEF70EFB804636
:101EF000894638460099FEF759F9FEF7D8FB0546A2
:101F00000E466069FEF7D3FB52465B46FEF78BFA3E
:101F10002A463346FEF787FA4FF0FF32FEF764FB9E
:101F200005460E4638460099FEF792F92169FEF7FC
:101F300095F9616BFEF73AF9FEF7B9FB2A4633468D
:101F4000FEF7CAF942464B46FEF7C6F9FEF7C2FB5A
:101F5000E062606300992063C4E909710026154DB1
:101F6000B0F5000F07DBFFF779FD2063FEF78BFB71
:101F70002968486315E010F1FF4F0AD3FFF76EFDA3
:101F8000206329684E63FEF77EFB29688863BDE8FD
:101F9000F88F10F0FF4FFAD1FFF760FD206328683B
:101FA000466328688663F2E7000000207B14AE4792
:101FB000E17A843F940000200649002008624862CC
:101FC0008862C8624863886303490A685063096885
:101FD000886370470000002094000020000000008B
:101FE0000000000001020304060708090C20000895
:101FF000000000204C000000B81D00085820000818
:102000004C000020DC040000C81D00080000000097
:1020100000000000000000000000000000000000C0
:1020200000000000000000000000000000000000B0
:1020300000000000000000000000000000000000A0
:10204000000000000000000001000000100000007F
:08205000000000000024F40070
:0400000508000131BD
:00000001FF
